S02B00006275696C642F73723565312F436F6E6669672F636F7265312F44656275672F66697265776172652E8F
S3150800000040720124010400080304000803040008E0
S315080000100304000803040008030400080304000896
S315080000200304000803040008030400080304000886
S3150800003003040008030400080304000881010108FA
S315080000400304000803040008030400080304000866
S315080000500304000803040008912700081128000873
S31508000060A128000831290008C1290008D1D20008B2
S31508000070E1D20008F1D2000801D3000811D3000824
S3150800008021D3000831D3000841D3000831400008C5
S31508000090814000080304000803040008030400085C
S315080000A091030108513E0008A1030108B1030108A4
S315080000B0F13E0008913F0008E13F000803040008EC
S315080000C003040008030400080304000881E8000884
S315080000D091E800086177000811780008C1780008DF
S315080000E0512A0008E12C000803040008C10301088E
S315080000F0A13E0008D1030108E1030108413F0008B9
S31508000100D14000082141000831090108A1E800088A
S31508000110B1E8000803040008030400080304000803
S3150800012051D3000861D3000871D3000881D30008B1
S3150800013091D30008A1D30008B1D30008C1D30008A1
S31508000140030400080304000803040008E1FE00088D
S3150800015001FF000821FF000841FF000861FF0008B1
S3150800016081FF0008A1FF0008B1FF0008030400088A
S315080001700304000803040008030400080304000835
S315080001800304000803040008030400080304000825
S31508000190F1E2000811E3000831E3000841E3000832
S315080001A061E3000881E3000891E30008B1E3000871
S315080001B0D1E30008E1E3000801E4000821E40008AF
S315080001C0C1D4000803040008030400080304000857
S315080001D003040008030400080304000803040008D5
S315080001E0D1FF0008F1FF00081100010831000108DD
S315080001F0510001087100010891000108A1000108D9
S3150800020003040008030400080304000803040008A4
S315080002100304000803040008030400080304000894
S315080002200304000803040008030400080304000884
S315080002300304000803040008030400080304000874
S315080002400304000803040008030400080304000864
S315080002500304000803040008030400080304000854
S3150800026003040008C1D90008D1D90008E1D900085B
S31508000270F1D9000801DA000803040008030400089D
S315080002800304000803040008030400080304000824
S315080002900304000803040008030400080304000814
S315080002A00304000803040008030400080304000804
S315080002B003040008030400080304000803040008F4
S315080002C003040008030400080304000803040008E4
S315080002D003040008030400080304000803040008D4
S315080002E003040008030400080304000803040008C4
S315080002F003040008030400080304000803040008B4
S3150800030000000000000000000000000000000000DF
S3150800031000000000000000000000000000000000CF
S3150800032000000000000000000000000000000000BF
S3150800033000000000000000000000000000000000AF
S31508000340000000000000000000000000000000009F
S31508000350000000000000000000000000000000008F
S31508000360000000000000000000000000000000007F
S31508000370000000000000000000000000000000006F
S31508000380000000000000000000000000000000005F
S31508000390000000000000000000000000000000004F
S315080003A0000000000000000000000000000000003F
S315080003B0000000000000000000000000000000002F
S315080003C0000000000000000000000000000000001F
S315080003D0000000000000000000000000000000000F
S315080003E000000000000000000000000000000000FF
S315080003F000000000000000000000000000000000EF
S30D080004001EE000F000F8FEE71B
S3150800044000200021444A454BE2E802019A42FBDBC0
S315080004504349444A00240025E1E802459142FBDB72
S31508000460414A002A08D041483D498B18F0E8024520
S31508000470E1E802459942F9DB00203D493D4A08601A
S3150800048048608860C860086148618861C861203131
S315080004909142F4DB384A002A08D0384834498B1888
S315080004A004680C60043004319942F9DB72B63448AA
S315080004B080F30888334880F309883348334908604D
S315080004C040F20000CCF200004EF63471CEF2000184
S315080004D00860BFF34F8FBFF36F8F40F20000C0F282
S315080004E0F0004EF68851CEF200010860BFF34F8F38
S315080004F0BFF36F8F0020E1EE100A4EF63C71CEF284
S3150800050000010860062080F31488BFF36F8F0CF093
S3150800051087FC0CF0ADFC1E491E4A1F4B9A4204DAB2
S315080005200868106004310432F8E70CF0A9FC1B4C8B
S315080005301B4DAC4203DA216888470434F9E700F01A
S31508000540A7FB184C184DAC4203DA216888470434D7
S31508000550F9E71649084700000000002400000224B5
S3150800056000000000008000001C000000B0D0010858
S31508000570000000200000012000000000CCD0010887
S3150800058040720124408201240100000808ED00E0C1
S31508000590CCD00108000000247C0E002408040008C2
S315080005A008040008080400080804000891CE00089A
S315080005B07BB972B90029BEBF00204FF0004106E0A2
S315080005C008BF00281CBF6FF000414FF0FF3000F055
S315080005D0BFB9ADF1080C6DE904CE002909DB002B83
S315080005E01ADB00F04DF8DDF804E0DDE9022304B07B
S315080005F07047404261EB4101002B1BDB00F040F8DD
S31508000600DDF804E0DDE9022304B0404261EB410174
S31508000610524263EB43037047524263EB430300F0D5
S315080006202FF8DDF804E0DDE9022304B0404261EB6F
S3150800063041017047524263EB430300F021F8DDF8AD
S3150800064004E0DDE9022304B0524263EB430370473A
S3150800065053B94AB9002908BF00281CBF4FF0FF311B
S315080006604FF0FF3000F074B9ADF1080C6DE904CE17
S3150800067000F006F8DDF804E0DDE9022304B070476F
S315080006802DE9F047089D04468E46002B4DD18A4237
S31508000690944669D9B2FA82F252B101FA02F3C2F16A
S315080006A0200120FA01F10CFA02FC41EA030E9440FB
S315080006B04FEA1C48210CBEFBF8F61FFA8CF708FB1C
S315080006C016E341EA034306FB07F199420AD91CEBF4
S315080006D0030306F1FF3080F01F81994240F21C8126
S315080006E0023E63445B1AA4B2B3FBF8F008FB10336E
S315080006F044EA034400FB07F7A7420AD91CEB0404A3
S3150800070000F1FF3380F00A81A74240F20781644472
S31508000710023840EA0640E41B00261DB1D4400023F7
S31508000720C5E900433146BDE8F0878B4209D9002D5B
S3150800073000F0EF800026C5E9000130463146BDE8E5
S31508000740F087B3FA83F6002E4AD18B4202D382424F
S3150800075000F2F980841A61EB030301209E46002DFE
S31508000760E0D0C5E9004EDDE702B9FFDEB2FA82F253
S31508000770002A40F09280A1EB0C014FEA1C471FFAB1
S315080007808CFE0126200CB1FBF7F307FB131140EA98
S3150800079001410EFB03F0884208D91CEB010103F165
S315080007A0FF3802D2884200F2CB804346091AA4B227
S315080007B0B1FBF7F007FB101144EA01440EFB00FEFB
S315080007C0A64508D91CEB040400F1FF3102D2A64560
S315080007D000F2BB800846A4EB0E0440EA03409CE7FF
S315080007E0C6F12007B34022FA07FC4CEA030C20FAAC
S315080007F007F401FA06F31C43F9404FEA1C4900FACC
S3150800080006F3B1FBF9F8200C1FFA8CFE09FB181148
S3150800081040EA014108FB0EF0884202FA06F20BD9BB
S315080008201CEB010108F1FF3A80F08880884240F20B
S315080008308580A8F102086144091AA4B2B1FBF9F04F
S3150800084009FB101144EA014100FB0EFE8E4508D94A
S315080008501CEB010100F1FF346CD28E456AD90238CF
S31508000860614440EA0840A0FB0294A1EB0E01A142B4
S31508000870C846A64656D353D05DB1B3EB080261EB22
S315080008800E0101FA07F722FA06F3F1401F43C5E9FC
S31508000890007100263146BDE8F087C2F12003D84032
S315080008A00CFA02FC21FA03F3914001434FEA1C4774
S315080008B01FFA8CFEB3FBF7F007FB10360B0C43EA66
S315080008C0064300FB0EF69E4204FA02F408D91CEB16
S315080008D0030300F1FF382FD29E422DD90238634414
S315080008E09B1B89B2B3FBF7F607FB163341EA0341B4
S315080008F006FB0EF38B4208D91CEB010106F1FF3803
S3150800090016D28B4214D9023E6144C91A46EA0046F9
S3150800091038E72E46284605E70646E3E61846F8E68B
S315080009204B45A9D2B9EB020864EB0C0E0138A3E7D4
S315080009304646EAE7204694E74046D1E7D0467BE7B5
S31508000940023B614432E7304609E76444023842E72D
S31508000950704700BF00000000000000000000000013
S31508000960844641EA000313F003036DD1403A41D3AC
S3150800097051F8043B40F8043B51F8043B40F8043B6B
S3150800098051F8043B40F8043B51F8043B40F8043B5B
S3150800099051F8043B40F8043B51F8043B40F8043B4B
S315080009A051F8043B40F8043B51F8043B40F8043B3B
S315080009B051F8043B40F8043B51F8043B40F8043B2B
S315080009C051F8043B40F8043B51F8043B40F8043B1B
S315080009D051F8043B40F8043B51F8043B40F8043B0B
S315080009E051F8043B40F8043B51F8043B40F8043BFB
S315080009F0403ABDD2303211D351F8043B40F8043B9B
S31508000A0051F8043B40F8043B51F8043B40F8043BDA
S31508000A1051F8043B40F8043B103AEDD20C3205D3AA
S31508000A2051F8043B40F8043B043AF9D2043208D0A2
S31508000A30D2071CBF11F8013B00F8013B01D30B8814
S31508000A4003806046704700BF082A13D38B078DD0F2
S31508000A5010F003038AD0C3F10403D21ADB071CBFC4
S31508000A6011F8013B00F8013B80D331F8023B20F82E
S31508000A70023B7BE7043AD9D3013A11F8013B00F867
S31508000A80013BF9D20B7803704B7843708B788370EF
S31508000A9060467047000000000000000000000000EB
S31508000AA090F800F06DE9024520F007016FF0000CA0
S31508000AB010F0070491F820F040F049804FF0000448
S31508000AC06FF00700D1E9002391F840F000F1080023
S31508000AD082FA4CF2A4FA8CF283FA4CF3A2FA8CF35B
S31508000AE04BBBD1E9022382FA4CF200F10800A4FAC2
S31508000AF08CF283FA4CF3A2FA8CF3E3B9D1E9042316
S31508000B0082FA4CF200F10800A4FA8CF283FA4CF34C
S31508000B10A2FA8CF37BB9D1E9062301F1200182FA06
S31508000B204CF200F10800A4FA8CF283FA4CF3A2FA0C
S31508000B308CF3002BC6D0002A04BF04301A4612BA1A
S31508000B40B2FA82F2FDE8024500EBD2007047D1E91D
S31508000B50002304F00305C4F100004FEAC50514F0AC
S31508000B60040F91F840F00CFA05F562EA05021CBF7D
S31508000B7063EA050362464FF00004A9E70000000097
S31508000B8001F0FF01102A2BDB10F0070F08D010F830
S31508000B90013B013A8B422DD010F0070F42B3F6D134
S31508000BA0F0B441EA012141EA014122F007047FF04D
S31508000BB000070023F0E80256083C85EA010586EAA4
S31508000BC0010685FA47F5A3FA87F586FA47F6A5FAE0
S31508000BD087F68EB9EED1F0BC01F0FF0102F00702EC
S31508000BE032B110F8013B013A83EA010313B1F8D197
S31508000BF00020704701387047002D06BF3546033878
S31508000C00073815F0010F07D1013015F4807F02BFB0
S31508000C10013015F4C03F0130F0BC0138704700BF01
S31508000C2000BF704700000000000000000000000040
S31508000C3000B583B00346ADF80630BDF8063003F0BC
S31508000C400103002B01D00CF02BF9BDF8063003F098
S31508000C500203002B01D00CF0E3FCBDF8063003F0CC
S31508000C600403002B01D0FFF7DBFFBDF8063003F0C5
S31508000C701003002B01D00FF06BFE00BF03B05DF828
S31508000C8004FB00BF00000000000000000000000098
S31508000C9008B54E4806F09CFA10234D4A01214D48E6
S31508000CA000F0DEFE4C4B4D4A4FF4E131022007F0CE
S31508000CB0FFF8484A4A49022006F07AFF0421022032
S31508000CC006F0EEFF07F094FD4FF4FA7001F068FAAB
S31508000CD001220321472002F0FBFE012203214820BE
S31508000CE002F0F6FE01220321492002F0F1FE01225C
S31508000CF003214A2002F0ECFE01220321422002F0E1
S31508000D00E7FE01220321412002F0E2FE002008F05E
S31508000D10DFFD44F268220021042003F009FE0021C9
S31508000D20304803F095FC002210216E2002F0D0FE18
S31508000D304FF496720021012003F0FAFD41F23421A6
S31508000D40294803F085FC294B294A0221032001F092
S31508000D509FFB0AF0E5F9022009F07AFF0AF070FB1A
S31508000D60244B254A0521002003F072FB214B234A18
S31508000D700A21022003F06CFB1E4B214A0A21072098
S31508000D8003F066FB1F4B93F90030002B13D00AF0D3
S31508000D908FFF1D4B1A781D4B1B789A4206D01C48AC
S31508000DA007F006FF194B1A78174B1A700AF030FC31
S31508000DB0144B00221A700BF073FD164B93F9003092
S31508000DC0002BDFD0134B00221A70DBE700A3E111DA
S31508000DD08C0E0024A00E0024CE700200CF700200F4
S31508000DE021CC0008842004000041010003111300EF
S31508000DF001110300810E0024A1CA0008C1CA000817
S31508000E0001CB0008CD140124820E0024EA11012426
S31508000E1060040024CF140124000000000000000034
S31508000E2000B585B003900291019201990023002232
S31508000E30029806F09DFD019B184605B05DF804FB77
S31508000E4000B585B001900E4B1B6803930C4B1A68CE
S31508000E50019B13440B4A934207D911F0A9FB034699
S31508000E600C221A604FF0FF3306E0054B1A68019B07
S31508000E701344034A1360039B184605B05DF804FB48
S31508000E8014000024000002240000000000000000F6
S31508000E9000BF7047000000000000000000000000CE
S31508000EA082B00023019300230093002301930CE0F2
S31508000EB00023009302E0009B01330093009BB3F5E7
S31508000EC0803FF8D3019B01330193019BFF2BEFD998
S31508000ED000BF00BF02B0704700000000000000001D
S31508000EE010B5DAB05AACA4F5AA7420605AA8A0F5D1
S31508000EF0AC7001605AA9A1F5AE710A605AAAA2F5AA
S31508000F00B0721360002359930023ADF862310023B1
S31508000F10ADF860315AABA3F5AC731868FFF7C0FD9E
S31508000F2003461BB2ADF85E310023ADF85C310023F1
S31508000F30ADF85A319D4B1B78032B40F0C1819B4B72
S31508000F401B699A4A926810469847984BDC68974BF3
S31508000F509868BDF85A311AB293B201339BB21BB2E4
S31508000F60ADF85A3192B25AABA3F5AA731B680021A1
S31508000F70A0475AABA3F5AC731B6859935AABA3F5B4
S31508000F80AC731868FFF78CFD03461BB2ADF85E31EB
S31508000F90864B5B881A46854B9B7992FBF3F31BB20B
S31508000FA0ADF85C3100BF599B5A1C599293F9003031
S31508000FB0002BF8D10023ADF860311CE0599B013BAA
S31508000FC05993599B93F900302F2B04D0599B93F9C9
S31508000FD000305C2B06D1BDF860319BB201339BB261
S31508000FE0ADF86031BDF85E311BB29BB2013B9BB2D6
S31508000FF01BB2ADF85E31BDF860319BB2012B04D847
S31508001000BDF85E311BB2002BD8DABDF85E311BB2D3
S31508001010002B09DB599B0133599316AB599A64493E
S31508001020184611F095FB11E0BDF860319BB2002B14
S3150800103006D116AB599A5F49184611F089FB05E0A7
S3150800104016AB599A5A49184611F082FB0023ADF897
S3150800105062316BE00023ADF8603135E016AB184617
S31508001060FFF71EFD03469BB21A46BDF860319BB2D8
S315080010701946BDF862319BB2BDF85C0100B200FBAF
S3150800108003F30B449A4229DBBDF860319BB21A463A
S31508001090BDF862319BB2BDF85C1109B201FB03F3DE
S315080010A01344BDF8602192B211465AAAA2F5887275
S315080010B0D2565AABA3F5A8735A54BDF860319BB201
S315080010C001339BB2ADF86031BDF860319BB21A4668
S315080010D0BDF85C311BB29A42C0DB00E000BFBDF828
S315080010E060319BB21A465AABA3F5A87300219954EE
S315080010F02E4BDC682D4B98682C4BDB799AB2BDF8E1
S315080011005A3119B28BB201339BB21BB2ADF85A31C0
S315080011108BB212FB03F39AB206AB0021A047BDF8C7
S3150800112062319BB201339BB2ADF86231BDF86231D0
S315080011309BB21C4616AB1846FFF7B2FC0346BDF831
S315080011405C2112B2B3FBF2F301339C4282D35AAB51
S31508001150A3F5AE7316A81A68174911F0F9FA134BD6
S31508001160DC68124B9868114BDB799AB2BDF85A3194
S3150800117019B28BB201339BB21BB2ADF85A318BB29E
S3150800118012FB03F39AB216AB0021A0475AABA3F59C
S31508001190B0731B68002B00F0CA800023ADF86231DB
S315080011A079E00023ADF8603143E000BFB40E0024B7
S315080011B0A0A00108ACA00108BCA001085AABA3F581
S315080011C0B0731868FFF76CFC03469BB21A46BDF865
S315080011D060319BB21946BDF862319BB2BDF85C011D
S315080011E000B200FB03F30B449A422CDBBDF86031D6
S315080011F09BB21A46BDF862319BB2BDF85C1109B2C2
S3150800120001FB03F313441A465AABA3F5B0731B68E4
S315080012101344BDF8602192B293F900105AABA3F5B6
S31508001220A8739954BDF860319BB201339BB2ADF8EF
S315080012306031BDF860319BB21A46BDF85C311BB20D
S315080012409A42BBDB00E000BFBDF860319BB21A468C
S315080012505AABA3F5A87300219954364BDC68354B75
S315080012609868344BDB799AB2BDF85A3119B28BB209
S3150800127001339BB21BB2ADF85A318BB212FB03F3A2
S315080012809AB206AB0021A047BDF862319BB2013382
S315080012909BB2ADF86231BDF862319BB21C465AABBF
S315080012A0A3F5B0731868FFF7FBFB0346BDF85C218E
S315080012B012B2B3FBF2F301339C42FFF472AF36E08D
S315080012C016AB4FF480720021184611F079F9194BC4
S315080012D0DB685AAAA2F5AA72106898475AABA3F512
S315080012E0B0731B68002B11D05AABA3F5AE735AAA7C
S315080012F0A2F5AC7216A85AA9A1F5B07109680091B1
S315080013001B6812680C4911F023FA0BE05AABA3F5D7
S31508001310AE735AAAA2F5AC7216A81B6812680749DA
S3150800132011F016FA034BDB6816AA1046984700BF59
S315080013305AB010BDB40E0024C8A00108E4A00108E4
S3150800134000B585B00292019303468DF80F300B461F
S315080013508DF80E309DF80E30002B24D19DF80F30F5
S31508001360012B19D0022B20D1164B1B78002B00D04D
S31508001370FEE7144B1B780133DAB2124B1A7002F0EF
S3150800138007FDFFF785FD029B069A01990E48FFF7B0
S31508001390A7FDFFF785FDF6E7029B069A01990B481C
S315080013A0FFF79EFD02E000BF00E000BF9DF80E308B
S315080013B0002B0CBF01230023DBB2184605B05DF8ED
S315080013C004FB00BFC80E0024FCA001080CA10108FC
S315080013D000B583B0019000916A460123019904483B
S315080013E000F006FA009B184603B05DF804FB00BF40
S315080013F000000024000000000000000000000000BB
S3150800140084B00390084611461A460346ADF80A30DA
S315080014100B46ADF8083013468DF80730039B002BB2
S315080014201CD0104A039B93600E4B03221A700D4A78
S31508001430BDF80A3053800B4ABDF808309380094A34
S315080014409DF807309371074A9DF81030D371054A05
S31508001450059BD360034A069B136100E000BF00BFEB
S3150800146004B07047B40E002400000000000000001D
S3150800147082B00190019B002B0CD0019B5B7C03F092
S315080014800103DBB2002B07D0019A537C43F010030B
S31508001490537402E000BF00E000BF00BF02B070470F
S315080014A02DE9F04F89B003904FF000024FF000038A
S315080014B0CDE90623039B002B57D0039B5B7C03F0E7
S315080014C00103DBB2002B52D0039B5B7C03F01003B5
S315080014D0DBB2002B4DD1039B5A68039B1B68D31ABA
S315080014E00593039B5B7CC3F3C003DBB28DF8133013
S315080014F0039A537C43F008035374039B5B7C03F005
S315080015002003DBB2002B06D0059B00229A469346A1
S31508001510CDE906AB1EE0039B9A68039BDB68D31AEA
S31508001520002298469146CDE90689059B00221C466D
S315080015301546DDE90623A61845EB0307059B002299
S3150800154000930192DDE9002330463946FFF730F86B
S31508001550CDE906239DF8133003F00103D9B2039AA7
S31508001560537C61F3C303537404E000BF02E000BF79
S3150800157000E000BF069B184609B0BDE8F08F00BF23
S3150800158000B58BB003900291019201238DF82730A4
S31508001590039B002B09D0029B002B06D0019B002B36
S315080015A003D0019B1B68002B03D102238DF827303B
S315080015B013E1019B1B680893019B00221A60039B99
S315080015C05B7C03F00103DBB2002B03D103238DF808
S315080015D0273002E1039B5B7C03F00803DBB2002B98
S315080015E003D004238DF82730F7E0039B5B7C03F0D8
S315080015F00203DBB2002B03D005238DF82730ECE07D
S31508001600039A537C43F002035374039B5B7C03F0F9
S315080016101003DBB2002B11D0039B1A68039B9A6058
S31508001620039B1A68039BDA60039A537C6FF345138E
S315080016305374039A537C6FF304135374039B5B7CB4
S3150800164003F02003DBB2002B08D006238DF82730E1
S31508001650039A537C6FF341035374BEE0039B9B6864
S315080016600793039BDB68059300230693059A079B5C
S315080016709A422BD9059A079BD31A0693039B1B7C80
S315080016801A46069BB3FBF2F3089A9A4209D9039BBA
S315080016901B7C1A46069BB3FBF2F3089307238DF8C7
S315080016A027300798039B1B7C1A46089B02FB03F30B
S315080016B01A460299FFF754F9039B1B7C1A46089BA6
S315080016C002FB03F3079A134407935DE0039B5A68EA
S315080016D0079BD31A0693039B1B7C1A46069BB3FBF0
S315080016E0F2F3089A9A4214D80798039B1B7C1A4669
S315080016F0089B02FB03F31A460299FFF731F9039B8D
S315080017001B7C1A46089B02FB03F3079A13440793AC
S315080017103AE0079B069A02991846FFF721F9029ABA
S31508001720069B13440293039B1B7C1A46089B03FBE8
S3150800173002F2069BD31A0693039B1B68059AD31AD3
S31508001740069A9A4214D9039B1A68059BD21A069BD5
S315080017501344039A127CB3FBF2F3089AD31A08933C
S31508001760039B1B68059AD31A069307238DF827301F
S31508001770039B1B68069A02991846FFF7F1F8039B24
S315080017801B68069A13440793039B5B68079A9A4259
S3150800179002D1039B1B680793079A059B9A420CBFC5
S315080017A001230023D9B2039A537C61F3451353747A
S315080017B0039B079A9A60039A537C6FF34103537409
S315080017C0019B089A1A609DF82730012B02D09DF8D4
S315080017D0273000E000238DF827309DF8273018467B
S315080017E00BB05DF804FB00BF00000000000000001D
S315080017F000B58BB00390029101928DF80330012356
S315080018008DF82730039B002B06D0019B002B03D0B5
S31508001810019B1B68002B03D102238DF8273012E1A8
S31508001820019B1B680893019B00221A60039B5B7C43
S3150800183003F00103DBB2002B03D103238DF8273015
S3150800184001E1039B5B7C03F01003DBB2002B03D0A2
S315080018500A238DF82730F6E0039B5B7C03F0080328
S31508001860DBB2002B03D008238DF82730EBE0039B6F
S315080018705B7C03F00403DBB2002B03D009238DF84D
S315080018802730E0E0039A537C43F004035374039B28
S31508001890DB680793039B9B68059300230693079AC7
S315080018A0059B9A420FD1039B5B7C03F02003DBB2B6
S315080018B0002B08D10A238DF82730039A537C6FF33F
S315080018C082035374BFE0079A059B9A422ED2059A63
S315080018D0079BD31A0693039B1B7C1A46069BB3FBEE
S315080018E0F2F3089A9A4209D9039B1B7C1A46069B6F
S315080018F0B3FBF2F308930B238DF82730029B002BDA
S315080019000AD00799039B1B7C1A46089B02FB03F324
S315080019101A460298FFF724F8039B1B7C1A46089B75
S3150800192002FB03F3079A1344079366E0039B5A687E
S31508001930079BD31A0693039B1B7C1A46069BB3FB8D
S31508001940F2F3089A9A4217D8029B002B0AD00799F5
S31508001950039B1B7C1A46089B02FB03F31A46029854
S31508001960FEF7FEFF039B1B7C1A46089B02FB03F34C
S31508001970079A1344079340E0029B002B05D0079B68
S31508001980069A19460298FEF7EBFF029A069B13443D
S315080019900293039B1B7C1A46089B03FB02F2069BD9
S315080019A0D31A0693039B1B68059AD31A069A9A427A
S315080019B014D9039B1A68059BD21A069B1344039AEB
S315080019C0127CB3FBF2F3089AD31A0893039B1B689D
S315080019D0059AD31A06930B238DF82730029B002B02
S315080019E006D0039B1B68069A19460298FEF7B8FFAD
S315080019F0039B1B68069A134407939DF80330002B34
S31508001A000FD0039B5B68079A9A4202D1039B1B6817
S31508001A100793039A537C6FF345135374039B079AF2
S31508001A20DA60039A537C6FF382035374019B089A16
S31508001A301A609DF82730012B02D09DF8273000E068
S31508001A4000238DF827309DF8273018460BB05DF82F
S31508001A5004FB00BF000000000000000000000000BA
S31508001A6086B00390019200930B468DF80B30012344
S31508001A708DF81730039B002B05D0019B002B02D055
S31508001A80009B002B03D102238DF817301DE0039B22
S31508001A903E225A74019A039B1A60039B1A68009B9C
S31508001AA01A44039B5A60039B1A68039B9A60039B1C
S31508001AB01A68039BDA60039B9DF80B201A74039B34
S31508001AC001225A7400238DF817309DF817301846EE
S31508001AD006B070470000000000000000000000008B
S31508001AE000B585B0039002910192094810F028FECE
S31508001AF00399084810F0BCFD0299074810F0B8FD94
S31508001B00019B002BF1D00199044810F0B1FDECE7D8
S31508001B1020A101083CA1010848A1010858A1010813
S31508001B2000B585B00190019B002B04D10022EB2162
S31508001B302348FFF7D5FF00238DF80F3000230293C3
S31508001B40019B002B36D0019B93F900302D2B06D133
S31508001B5001238DF80F30019B0133019318E0019B97
S31508001B6093F900302B2B13D1019B013301930FE01E
S31508001B70029A13469B0013445B001A46019B93F98D
S31508001B800030DBB2303B13440293019B01330193CF
S31508001B90019B93F900302F2B04DD019B93F900304C
S31508001BA0392BE5DD9DF80F30002B04D0029B5B42F4
S31508001BB0029300E000BF029B184605B05DF804FBDF
S31508001BC068A10108000000000000000000000000F5
S31508001BD000B589B001900091019B002B05D1002228
S31508001BE04FF4B4712548FFF77BFF00238DF81F30AB
S31508001BF0019B002B3DD0009B002B1DD1019B302261
S31508001C001A7037E000991E4BA3FB0123DA08134626
S31508001C109B0013445B00CA1A9DF81F30591C8DF8A7
S31508001C201F1052B220336B4403F8142C009B144A3D
S31508001C30A2FB0323DB080093009B002BE2D113E0F1
S31508001C409DF81F30013B20336B4413F9143CDBB27B
S31508001C503033D9B2019B5A1C01924AB21A709DF8C8
S31508001C601F30013B8DF81F309DF81F30002BE7D140
S31508001C7000E000BF00BF09B05DF804FB68A10108D9
S31508001C80CDCCCCCC00000000000000000000000015
S31508001C9000B58BB00190019B002B05D1002240F2C4
S31508001CA027215948FFF71CFF00238DF827304FF0EE
S31508001CB000024FF00003CDE906234FF000024FF073
S31508001CC00003CDE904234FF00002504BCDE902236F
S31508001CD0019B002B00F08A80019B93F900302D2B85
S31508001CE006D101238DF82730019B013301931EE0AD
S31508001CF0019B93F900302B2B19D1019B01330193DA
S31508001D0015E09DED067BB2EE046B27EE066B019B94
S31508001D1093F90030DBB2303B07EE903AB8EEE77B3A
S31508001D2036EE077B8DED067B019B01330193019B04
S31508001D3093F900302F2B04DD019B93F90030392BE2
S31508001D40DFDD019B93F900302E2B3CD1019B01333B
S31508001D5001931DE09DED047BB2EE046B27EE066B46
S31508001D60019B93F90030DBB2303B07EE903AB8EEB0
S31508001D70E77B36EE077B8DED047B9DED027BB2EEAD
S31508001D80046B27EE067B8DED027B019B01330193E5
S31508001D90019B93F900302F2B0DDD019B93F9003041
S31508001DA0392B08DC9DED027B9FED156BB4EEC67BE7
S31508001DB0F1EE10FACED49DED045B9DED026B85EE37
S31508001DC0067B8DED047B9DED066B9DED047B36EE63
S31508001DD0077B8DED067B9DF82730002B07D09DED00
S31508001DE0067BB1EE477B8DED067B00E000BFDDE9A3
S31508001DF0062343EC172BB0EE470B0BB05DF804FB3C
S31508001E000000000065CDCD4168A101080000F03F43
S31508001E1000B59DB003908DED000B0B468DF80B3089
S31508001E20039B002B05D1002240F267217C48FFF76F
S31508001E3057FE00231B9300231A939DF80B308DF849
S31508001E406730039B002B00F0E6809DED007BFDEEDE
S31508001E50C77B17EE903A1B939DED007BB5EEC07BD2
S31508001E60F1EE10FA05D5039B5A1C03922D221A701F
S31508001E7014E09DED007BB5EE407BF1EE10FA0DD136
S31508001E80039B5A1C039230221A70039B5A1C039216
S31508001E902E221A70039B30221A70BDE01B9B07EE98
S31508001EA0903AB8EEE77B9DED006B36EE477B8DEDFD
S31508001EB0007B07E09DED007BB2EE046B27EE067B08
S31508001EC08DED007B9DF867305A1E8DF86720002B34
S31508001ED0F0D19DED007BFDEEC77B17EE903A1A9385
S31508001EE000238DF867309DF867305A1C8DF86720F7
S31508001EF018461B994B4B83FB01239A10CB17D21A12
S31508001F0013469B0013445B00CA1A830070336B4464
S31508001F1043F83C2C1B9B434A82FB03129210DB17A7
S31508001F20D31A1B931B9B002BDDD117E09DF8673056
S31508001F30013B9B0070336B4453F83C3C002BB8BF05
S31508001F405B42DBB23033D9B2039B5A1C03924AB2C6
S31508001F501A709DF86730013B8DF867309DF8673039
S31508001F60002BE3D19DF80B30002B55D000238DF8BC
S31508001F706730039B5A1C03922E221A701A9B002B59
S31508001F8027D1039B30221A7046E09DF867305A1C09
S31508001F908DF8672018461A99224B83FB01239A105D
S31508001FA0CB17D21A13469B0013445B00CA1A830048
S31508001FB070336B4443F8602C1A9B1A4A82FB03124F
S31508001FC09210DB17D31A1A939DF80B30013B8DF844
S31508001FD00B309DF80B30002BD7D117E09DF86730F2
S31508001FE0013B9B0070336B4453F8603C002BB8BF31
S31508001FF05B42DBB23033D9B2039B5A1C03924AB216
S315080020001A709DF86730013B8DF867309DF8673088
S31508002010002BE3D100E000BF00BF1DB05DF804FB54
S3150800202068A10108676666660000000000000000F7
S3150800203000B587B00190019B002B05D1002240F224
S31508002040BD213A48FFF74CFD0198FEF729FD05909A
S315080020500023049300238DF80F3000238DF80E30EB
S31508002060019B002B5BD09DF80E30002B3DD0019BC9
S3150800207093F90030602B0CDD019B93F90030662B39
S3150800208007DC019B93F90030DBB2573B8DF80F3024
S3150800209022E0019B93F90030402B0CDD019B93F95C
S315080020A00030462B07DC019B93F90030DBB2373B47
S315080020B08DF80F3010E0019B93F900302F2B2FDDA0
S315080020C0019B93F90030392B2ADC019B93F90030E8
S315080020D0DBB2303B8DF80F30049B1A019DF80F30A8
S315080020E003F00F031343049310E0019B93F90030A8
S315080020F0302B0BD1019B013393F90030782B05D196
S31508002100019B0133019301238DF80E30019B0133A6
S315080021100193059B5A1E0592002BA1D100E000BF32
S31508002120049B184607B05DF804FB00BF68A10108C8
S3150800213008B5174B5B68174A934227D0144B4FF4E0
S3150800214080321A60134A124B5A60124B03F58033D9
S315080021500F4A93600E4B0022DA600F4B00221A706A
S315080021600B4B1B681A4600210A4810F029FA094A3F
S315080021704FF6F87313441A46054B1A61044B1B694C
S31508002180044A1A60024B1B69024A5A6000BF08BD1E
S31508002190CC0E0024E40E0024E00E0024000000000B
S315080021A088B0019000230793002306930023059324
S315080021B0002304930023039353E0019B0A2B28BFB3
S315080021C00A230793079B019AD31A0193284B1B6886
S315080021D05B6A0493264B1B685B6A0393049A039B0A
S315080021E09A42F3D1079B4FF47A7203FB02F2049BDF
S315080021F013440693069A13091E49A1FB0313DB0928
S315080022004CF2503101FB03F3D31A0593184B1B68A4
S315080022105B6A0493164B1B685B6A0393049A039BD9
S315080022209A42F3D1069B4CF24F32934209D9049B4A
S3150800223046F2A7129342E9D8049A059B9A42E5D931
S315080022400FE0059A4CF250339B1A642B05D8049B71
S3150800225046F2A7129342D9D803E0049A059B9A42FC
S31508002260D4D9019B002BA8D100BF00BF08B0704786
S31508002270DC610124C55A7C0A000000000000000049
S3150800228000B583B09523ADF806304CF24F33ADF860
S31508002290043019480EF044F9002117480EF050F999
S315080022A0002115480EF064F9012113480EF078F95B
S315080022B0002111480EF08CF900210F480EF0A0F904
S315080022C001210D480EF0B4F902210B480EF0C8F9A9
S315080022D0BDF80630194608480EF0EAF9BDF804308C
S315080022E0194605480EF0D4F903480EF001FA00BF66
S315080022F003B05DF804FB00BFDC61012400000000A8
S3150800230000B585B0034600918DF8073001238DF896
S315080023100F300023ADF80C309DF8072039491346D5
S315080023205B0013449B000B4408331B68002B0BD13E
S3150800233000224921344804F06BFF0346002B03D0E2
S3150800234021238DF80F3057E0009B002B0BD100227C
S3150800235051212D4804F05CFF0346002B03D02423AB
S315080023608DF80F3048E09DF80720264913465B0094
S3150800237013449B000B4408331B68012B12D19DF8AC
S315080023800720204913465B0013449B000B441B6837
S315080023901B685B6A1BB2002B00DA03339B10ADF88F
S315080023A00C3022E09DF80720164913465B001344BB
S315080023B09B000B441B681B685B6AADF80C309DF8E4
S315080023C00720104913465B0013449B000B44063351
S315080023D01B88184601F0F4FA0346002B05D1BDF810
S315080023E00C305B429BB2ADF80C30009BBDF80C205C
S315080023F01A8000238DF80F309DF80F30184605B067
S315080024005DF804FB18000024B0A1010800000000D4
S3150800241000B585B003468DF8073001238DF80F30D7
S315080024209DF80720154913465B0013449B000B448F
S3150800243008331B68002B0BD100227E21104804F0BC
S31508002440E7FE0346002B03D021238DF80F300EE05C
S315080024509DF80720094913465B0013449B000B446B
S315080024601B681B6800225A6200238DF80F309DF8FE
S315080024700F30184605B05DF804FB00BF18000024AD
S31508002480B0A10108000000000000000000000000E4
S3150800249000B587B00292019303468DF80F300B46BC
S315080024A08DF80E3001238DF817309DF80F30042172
S315080024B0184604F0BDFE0346002B0BD00022C521AA
S315080024C0AC4804F0A5FE0346002B03D025238DF85F
S315080024D0173049E19DF80F20A74913465B001344BE
S315080024E09B000B4408331B68002B0BD00022CE211F
S315080024F0A04804F08DFE0346002B03D020238DF858
S31508002500173031E19DF80F20029B1B0C03F00F03D7
S315080025109A420BD00022D521964804F079FE03464C
S31508002520002B03D022238DF817301DE19DF80F20CC
S31508002530019B1B0C03F00F039A420BD00022DC21EF
S315080025408C4804F065FE0346002B03D023238DF840
S31508002550173009E1029B9BB29DF80F20C3F30B03CA
S3150800256098B2854913465B0013449B000B44043319
S3150800257002461A80019B9BB29DF80F20C3F30B03FA
S3150800258098B27D4913465B0013449B000B440633FF
S3150800259002461A809DF80F209DF80E1076481346BD
S315080025A05B0013449B000344083319609DF80F2011
S315080025B0714913465B0013449B000B441B680122B8
S315080025C09A609DF80F206C4913465B0013449B00E4
S315080025D00B441B684FF6FF72DA609DF80F206649B8
S315080025E013465B0013449B000B441A68137C43F0A4
S315080025F0300313749DF80F205F4913465B0013449C
S315080026009B000B4404331888029B1B0BDBB203F0B8
S315080026100F03DBB21A46132101F0DAFA9DF80E30E1
S31508002620012B14D19DF80F20534913465B00134420
S315080026309B000B4406331888019B1B0BDBB203F087
S315080026400F03DBB21A46132101F0C2FA0EE09DF819
S315080026500F20494913465B0013449B000B4406337D
S315080026601B8801220121184601F032FA9DF80F3025
S31508002670184604F035FE9DF80F203F4913465B00C7
S3150800268013449B000B441B681B6800229A629DF842
S315080026900F20394913465B0013449B000B441B6803
S315080026A01B684FF6FF72DA629DF80F20324913460F
S315080026B05B0013449B000B441B681B6800225A628C
S315080026C09DF80E30012B01D1032100E057219DF81A
S315080026D00F20294813465B0013449B0003441B68DC
S315080026E01B689960002304939DF80F20224913461E
S315080026F05B0013449B000B441B681B689B6904938F
S31508002700049B43F001030493049B43F480730493EE
S315080027109DF80F20184913465B0013449B000B4491
S315080027201B681B68049A9A619DF80F201249134684
S315080027305B0013449B000B441B681B68196A9DF8D1
S315080027400F200D4813465B0013449B0003441B6887
S315080027501B6841F011021A629DF80F30184604F002
S31508002760D7FD00238DF817309DF81730184607B0A7
S315080027705DF804FBB0A10108180000240000000061
S3150800278082B00190009100BF02B0704700000000BF
S3150800279000B583B01C4B1B68D3F888201A4B1B68FE
S315080027A042F00102C3F88820174B9B8840F6FF7257
S315080027B093421FD000230193134B5B6A03F0030374
S315080027C0032B0CD0032B0DD8012B02D0022B03D0E0
S315080027D008E00123019305E00223019302E00323A5
S315080027E0019300BF094B1B68084A526811460198B5
S315080027F0984702E000200AF06BFEBFF34F8F00BF38
S3150800280000BF03B05DF804FBE0000024600000246C
S3150800281000B583B01D4B1B68D3F888201B4B1B687B
S3150800282042F00202C3F88820184BDB8840F6FF7294
S31508002830934220D000230193144B5B6A9B0803F054
S315080028400303032B0CD0032B0DD8012B02D0022B2C
S3150800285003D008E00123019305E00223019302E077
S315080028600323019300BF0A4B9B68094AD2681146A5
S315080028700198984702E001200AF02AFEBFF34F8F1D
S3150800288000BF00BF03B05DF804FB00BFE0000024F2
S3150800289060000024000000000000000000000000A6
S315080028A000B583B01D4B1B68D3F888201B4B1B68EB
S315080028B042F00402C3F88820184B1B8940F6FF72C1
S315080028C0934220D000230193144B5B6A1B0903F043
S315080028D00303032B0CD0032B0DD8012B02D0022B9C
S315080028E003D008E00123019305E00223019302E0E7
S315080028F00323019300BF0A4B1B69094A5269114613
S315080029000198984702E002200AF0E2FDBFF34F8FD4
S3150800291000BF00BF03B05DF804FB00BFE000002461
S315080029206000002400000000000000000000000015
S3150800293000B583B01D4B1B68D3F888201B4B1B685A
S3150800294042F00802C3F88820184B5B8940F6FF72EC
S31508002950934220D000230193144B5B6A9B0903F032
S315080029600303032B0CD0032B0DD8012B02D0022B0B
S3150800297003D008E00123019305E00223019302E056
S315080029800323019300BF0A4B9B69094AD269114682
S315080029900198984702E003200AF09AFDBFF34F8F8B
S315080029A000BF00BF03B05DF804FB00BFE0000024D1
S315080029B06000002400000000000000000000000085
S315080029C000B583B01D4B1B68D3F888201B4B1B68CA
S315080029D042F01002C3F88820184B9B8940F6FF7214
S315080029E0934220D000230193144B5B6A1B0A03F021
S315080029F00303032B0CD0032B0DD8012B02D0022B7B
S31508002A0003D008E00123019305E00223019302E0C5
S31508002A100323019300BF0A4B1B6A094A526A1146EF
S31508002A200198984702E004200AF052FDBFF34F8F41
S31508002A3000BF00BF03B05DF804FB00BFE000002440
S31508002A4060000024000000000000000000000000F4
S31508002A5000B587B09E4BD3F8883003F02003002BCF
S31508002A6036D09C4B1B68D3F888209A4B1B6842F0DB
S31508002A702002C3F88820974BDB8940F6FF72934201
S31508002A8020D000230593934B5B6A9B0A03F003034C
S31508002A90032B0CD0032B0DD8012B02D0022B03D00D
S31508002AA008E00123059305E00223059302E00323CA
S31508002AB0059300BF884B9B6A874AD26A11460598D8
S31508002AC0984702E005200AF003FDBFF34F8F00BFC9
S31508002AD07F4BD3F8883003F04003002B36D07D4B6C
S31508002AE01B68D3F888207B4B1B6842F04002C3F86A
S31508002AF08820784B1B8A40F6FF72934220D0002329
S31508002B000493744B5B6A1B0B03F00303032B0CD073
S31508002B10032B0DD8012B02D0022B03D008E001238A
S31508002B20049305E00223049302E00323049300BF01
S31508002B30694B1B6B684A526B11460498984702E02A
S31508002B4005200AF0C5FCBFF34F8F00BF604BD3F8D2
S31508002B50883003F08003002B36D05E4B1B68D3F811
S31508002B6088205C4B1B6842F08002C3F88820594BCA
S31508002B705B8A40F6FF72934220D000230393554B9D
S31508002B805B6A9B0B03F00303032B0CD0032B0DD8B6
S31508002B90012B02D0022B03D008E00123039305E0A2
S31508002BA00223039302E00323039300BF4A4B9B6B64
S31508002BB0494AD26B11460398984702E005200AF065
S31508002BC087FCBFF34F8F00BF414BD3F8883003F41F
S31508002BD08073002B36D03F4B1B68D3F888203D4BBB
S31508002BE01B6842F48072C3F888203A4B9B8A40F6E9
S31508002BF0FF72934220D000230293364B5B6A1B0C6C
S31508002C0003F00303032B0CD0032B0DD8012B02D0A2
S31508002C10022B03D008E00123029305E00223029366
S31508002C2002E00323029300BF2B4B1B6C2A4A526C0B
S31508002C3011460298984702E005200AF049FCBFF3BE
S31508002C404F8F00BF224BD3F8883003F40073002B54
S31508002C5036D0204B1B68D3F888201E4B1B6842F4DD
S31508002C600072C3F888201B4BDB8A40F6FF7293423A
S31508002C7020D000230193174B5B6A9B0C03F00303D8
S31508002C80032B0CD0032B0DD8012B02D0022B03D01B
S31508002C9008E00123019305E00223019302E00323E0
S31508002CA0019300BF0C4B9B6C0B4AD26C11460198E2
S31508002CB0984702E005200AF00BFCBFF34F8F00BFD0
S31508002CC0BFF34F8F00BF00BF07B05DF804FB00BF1E
S31508002CD000040042E0000024600000240000000018
S31508002CE000B587B0974BD3F8883003F48063002B80
S31508002CF036D0954B1B68D3F88820934B1B6842F453
S31508002D008062C3F88820904B1B8B40F6FF72934273
S31508002D1020D0002305938C4B5B6A1B0D03F003033D
S31508002D20032B0CD0032B0DD8012B02D0022B03D07A
S31508002D3008E00123059305E00223059302E0032337
S31508002D40059300BF814B1B6D804A526D114605984D
S31508002D50984702E006200AF0BBFBBFF34F8F00BF7F
S31508002D60784BD3F8883003F40063002B36D0764BC3
S31508002D701B68D3F88820744B1B6842F40062C3F8BA
S31508002D808820714B5B8B40F6FF72934220D000235C
S31508002D9004936D4B5B6A9B0D03F00303032B0CD066
S31508002DA0032B0DD8012B02D0022B03D008E00123F8
S31508002DB0049305E00223049302E00323049300BF6F
S31508002DC0624B9B6D614AD26D11460498984702E0A2
S31508002DD006200AF07DFBBFF34F8F00BF594BD3F88F
S31508002DE0883003F48053002B36D0574B1B68D3F832
S31508002DF08820554B1B6842F48052C3F88820524BF2
S31508002E009B8B40F6FF72934220D0002303934E4BD0
S31508002E105B6A1B0E03F00303032B0CD0032B0DD8A0
S31508002E20012B02D0022B03D008E00123039305E00F
S31508002E300223039302E00323039300BF434B1B6E55
S31508002E40424A526E11460398984702E006200AF055
S31508002E503FFBBFF34F8F00BF3A4BD3F8883003F4DC
S31508002E600053002B36D0384B1B68D3F88820364BD6
S31508002E701B6842F40052C3F88820334BDB8B40F6BC
S31508002E80FF72934220D0002302932F4B5B6A9B0E5E
S31508002E9003F00303032B0CD0032B0DD8012B02D010
S31508002EA0022B03D008E00123029305E002230293D4
S31508002EB002E00323029300BF244B9B6E234AD26E83
S31508002EC011460298984702E006200AF001FBBFF374
S31508002ED04F8F00BF1B4BD3F8883003F48043002B79
S31508002EE03CD0194B1B68D3F88820174B1B6842F453
S31508002EF08042C3F88820144B1B8C40F6FF7293421D
S31508002F0026D000230193104B5B6A1B0F03F00303C3
S31508002F10032B0CD0032B0DD8012B02D0022B03D088
S31508002F2008E00123019305E00223019302E003234D
S31508002F30019300BF054B1B6F044A526F1146019857
S31508002F40984708E000040042E000002460000024DE
S31508002F5006200AF0BDFABFF34F8F00BF214BD3F806
S31508002F60883003F40043002B34D01F4B1B68D3F87A
S31508002F7088201D4B1B6842F40042C3F888201A4B70
S31508002F805B8C40F6FF7293421ED000230093164BCB
S31508002F905B6A9B0F032B0CD0032B0DD8012B02D099
S31508002FA0022B03D008E00123009305E002230093D7
S31508002FB002E00323009300BF0C4B9B6F0B4AD26FB2
S31508002FC011460098984702E006200AF081FABFF3F6
S31508002FD04F8F00BFBFF34F8F00BF00BF07B05DF82C
S31508002FE004FB00BF00040042E00000246000002447
S31508002FF000B587B0059004910392049B0093059B46
S31508003000039A00210220FEF79BF9FEE70000000064
S3150800301000B58BB00390029101238DF82730039BEE
S31508003020002B0BD0002250213548FFF7E1FF03465D
S31508003030002B03D003238DF827305BE0029B032B7C
S315080030400BD9002257212E48FFF7D2FF0346002B43
S3150800305003D004238DF827304CE00023079307ABF1
S315080030601A46022127480BF02BFE0346002B03D0F5
S3150800307008238DF827303DE00022022121480BF075
S3150800308007FE0346002B03D008238DF8273031E0CE
S3150800309007AB1A4602211B480BF012FE0346002B0B
S315080030A003D008238DF8273024E0079B03F00F038D
S315080030B0002B03D008238DF827301BE0039B03F56C
S315080030C00F639A00029B13449B03089306AA05AB59
S315080030D0009313464FF4804208990A480BF0A0FE65
S315080030E00346002B03D002238DF8273002E0002385
S315080030F08DF827309DF8273018460BB05DF804FB8D
S31508003100E0A10108D84201240000000000000000E8
S3150800311000B58FB00590049101238DF83730059BD3
S31508003120002B0BD000229D212548FFF761FF03469F
S31508003130002B03D003238DF837303BE0049B032B89
S315080031400BD90022A4211E48FFF752FF0346002B85
S3150800315003D004238DF837302CE000238DF8373060
S3150800316004990598FFF754FF0346002B21D000F079
S3150800317037FE0C9000230B9300230A930122049B2D
S3150800318002FA03F30993002307930023089301AA7D
S3150800319007AB93E8030082E80300099B00930A9BA8
S315080031A00B9A002107480BF0EBFD0C9800F0F8FD90
S315080031B000E000BF9DF8373018460FB05DF804FBF5
S315080031C0E0A10108D8420124000000000000000028
S315080031D000B587B0039002910192ADF80230012341
S315080031E08DF81730039B002B0BD00022D7213348CC
S315080031F0FFF7FEFE0346002B03D003238DF8173096
S3150800320055E0029B032B0BD90022DE212B48FFF742
S31508003210EFFE0346002B03D004238DF8173046E053
S31508003220BDF80230B3F5804F0BD90022E6212348BA
S31508003230FFF7DEFE0346002B03D006238DF8173072
S3150800324035E0019B002B0BD10022ED211B48FFF72F
S31508003250CFFE0346002B03D005238DF8173026E052
S315080032600023ADF81430039B03F50F639A00029B05
S3150800327013449B0304930023ADF814300EE0BDF805
S315080032801420049B13441946019B1A1D01920A68CF
S315080032901A60BDF814300433ADF81430BDF81420A4
S315080032A0BDF802309A42EAD300238DF817309DF80C
S315080032B01730184607B05DF804FB00BFE0A1010807
S315080032C000B58BB0059004910392ADF80A3001233E
S315080032D08DF82730059B002B0CD000224FF48B71FC
S315080032E03048FFF785FE0346002B03D003238DF8ED
S315080032F0273050E0049B032B0CD9002240F21D1105
S315080033002848FFF775FE0346002B03D004238DF8E3
S31508003310273040E0BDF80A30B3F5804F0CD90022BB
S3150800332040F225111F48FFF763FE0346002B03D022
S3150800333006238DF827302EE0039B002B0CD10022A4
S315080033404FF496711748FFF753FE0346002B03D038
S3150800335005238DF827301EE000F042FD08900499F9
S315080033600598FFF7D5FE059B03F50F639A00049BA6
S3150800337013449B030793BDF80A20039B0093134647
S31508003380079A002108480BF0B3FC089800F008FDDE
S3150800339000238DF827309DF8273018460BB05DF8C6
S315080033A004FB00BFE0A10108D84201240000000088
S315080033B008B50BF055FC02480BF062FC00BF08BDCF
S315080033C0D8420124000000000000000000000000B0
S315080033D000B585B003460A46ADF8063013468DF8A3
S315080033E00530BDF806301B099BB28DF80F30BDF8C5
S315080033F00630DBB203F00F038DF80E309DF80F3060
S3150800340018460AF02DF90290029B002B14D0029B55
S315080034101A689DF80E305B00194603238B40DB4380
S315080034201A409DF8053003F003039DF80E10490075
S315080034308B401A43029B1A6000BF05B05DF804FB77
S3150800344000B585B003460A46ADF8063013468DF832
S315080034500530BDF806301B099BB28DF80F30BDF854
S315080034600630DBB203F00F038DF80E309DF80F30EF
S3150800347018460AF0F5F80290029B002B13D0029B1F
S315080034805A689DF80E30012101FA03F3DB431A400E
S315080034909DF8053003F001019DF80E3001FA03F39B
S315080034A01A43029B5A6000BF05B05DF804FB00BFD3
S315080034B000B585B003460A46ADF8063013468DF8C2
S315080034C00530BDF806301B099BB28DF80F30BDF8E4
S315080034D00630DBB203F00F038DF80E309DF80F307F
S315080034E018460AF0BDF80290029B002B14D0029BE6
S315080034F09A689DF80E305B00194603238B40DB4320
S315080035001A409DF8053003F003039DF80E10490094
S315080035108B401A43029B9A6000BF05B05DF804FB16
S3150800352000B585B003460A46ADF8063013468DF851
S315080035300530BDF806301B099BB28DF80F30BDF873
S315080035400630DBB203F00F038DF80E309DF80F300E
S3150800355018460AF085F80290029B002B14D0029BAD
S31508003560DA689DF80E305B00194603238B40DB436F
S315080035701A409DF8053003F003039DF80E10490024
S315080035808B401A43029BDA6000BF05B05DF804FB66
S3150800359000B585B003460A46ADF8063013468DF8E1
S315080035A00530BDF806301B099BB28DF80F30BDF803
S315080035B00630DBB203F00F038DF80E309DF80F309E
S315080035C018460AF04DF80290029B002B30D09DF861
S315080035D00E30072B15D8029B1A6A9DF80E309B00F1
S315080035E019460F238B40DB431A409DF8053003F03C
S315080035F00F039DF80E1089008B401A43029B1A622E
S3150800360016E0029B5A6A9DF80E30083B9B00194645
S315080036100F238B40DB431A409DF8053003F00F0358
S315080036209DF80E10083989008B401A43029B5A628E
S3150800363000BF05B05DF804FB0000000000000000B4
S3150800364000B585B003460A46ADF8063013468DF830
S315080036500530BDF806301B099BB28DF80F30BDF852
S315080036600630DBB203F00F038DF80E309DF80F30ED
S31508003670184609F0F5FF0290029B002B14D0029B16
S315080036809A6A9DF80E305B00194603238B40DB438C
S315080036901A409DF8053003F003039DF80E10490003
S315080036A08B401A43029B9A6200BF05B05DF804FB83
S315080036B000B585B003460A46ADF8063013468DF8C0
S315080036C00530BDF806301B099BB28DF80F30BDF8E2
S315080036D00630DBB203F00F038DF80E309DF80F307D
S315080036E0184609F0BDFF0290029B002B13D0029BDF
S315080036F0DA6A9DF80E30012101FA03F3DB431A401A
S315080037009DF8053003F001019DF80E3001FA03F328
S315080037101A43029BDA6200BF05B05DF804FB00BFDE
S3150800372000B585B003460A46ADF8063013468DF84F
S315080037300530BDF806301B099BB28DF80F30BDF871
S315080037400630DBB203F00F038DF80E309DF80F300C
S31508003750184609F085FF0290029B002B13D0029BA6
S315080037601A6B9DF80E30012101FA03F3DB431A4068
S315080037709DF8053003F001019DF80E3001FA03F3B8
S315080037801A43029B1A6300BF05B05DF804FB00BF2D
S3150800379000B585B003460A46ADF8063013468DF8DF
S315080037A00530BDF806301B099BB28DF80F30BDF801
S315080037B00630DBB203F00F038DF80E309DF80F309C
S315080037C0184609F04DFF0290029B002B13D0029B6E
S315080037D05A6B9DF80E30012101FA03F3DB431A40B8
S315080037E09DF8053003F001019DF80E3001FA03F348
S315080037F01A43029B5A6300BF05B05DF804FB00BF7D
S3150800380000B583B003460091ADF80630009BDBB2E5
S3150800381003F00303DAB2BDF8063011461846FFF77F
S31508003820D7FD009B9B0803F00103DAB2BDF806300A
S3150800383011461846FFF704FE009BDB0803F0030356
S31508003840DAB2BDF8063011461846FFF731FE009B7E
S315080038505B0903F00303DAB2BDF8063011461846D1
S31508003860FFF75EFE009BDB09DBB203F00F03DAB25B
S31508003870BDF8063011461846FFF78AFE009BDB0A9C
S3150800388003F00303DAB2BDF8063011461846FFF70F
S31508003890D7FE009B5B0B03F00103DAB2BDF80630D6
S315080038A011461846FFF704FF009B9B0B03F0010324
S315080038B0DAB2BDF8063011461846FFF731FF009B0D
S315080038C0DB0B03F00103DAB2BDF8063011461846E1
S315080038D0FFF75EFF00BF03B05DF804FB00000000C1
S315080038E000B587B0059004910392049B0093059B4D
S315080038F0039A00210220FDF723FDFEE700000000E1
S3150800390000B585B003460A46ADF8063013468DF86D
S31508003910053001238DF80F30BDF8063040F6FF72EA
S31508003920934207D1002284212248FFF7D9FF034694
S31508003930002B38D1BDF806305B099BB28DF80E30E6
S31508003940BDF80630DBB203F01F038DF80D309DF885
S315080039500530002B11D09DF80E30174A52F8233047
S3150800396099699DF80D3001229A409DF80E3012484B
S3150800397050F823300A439A6111E09DF80E300E4A3A
S3150800398052F8233099699DF80D304FF480329A40E9
S315080039909DF80E30084850F823300A439A610023F0
S315080039A08DF80F3000E000BF9DF80F30184605B0BF
S315080039B05DF804FB10A20108B0A60108000000008B
S315080039C000B585B00346ADF8063000238DF80F30F4
S315080039D0BDF8063040F6FF72934207D10022A321B4
S315080039E01648FFF77DFF0346002B20D1BDF80630A9
S315080039F05B099BB28DF80E30BDF80630DBB203F0DA
S31508003A001F038DF80D309DF80E300D4A52F82330FD
S31508003A101B699DF80D20012101FA02F21340002BC3
S31508003A2014BF01230023DBB28DF80F3000E000BF7E
S31508003A309DF80F30184605B05DF804FB10A2010882
S31508003A40B0A6010800000000000000000000000009
S31508003A5000B585B00346ADF8063001238DF80F3062
S31508003A60BDF8063040F6FF72934207D10022FF21C7
S31508003A701548FFF735FF0346002B1DD1BDF8063064
S31508003A805B101BB203F4FE631AB2BDF9063003F0ED
S31508003A901F031BB213431BB29BB242F23D011846E9
S31508003AA0FFF7AEFEBDF8063001211846FFF728FFDE
S31508003AB000238DF80F3000E000BF9DF80F30184640
S31508003AC005B05DF804FB00BF10A201080000000065
S31508003AD000B585B00346ADF806300B468DF80530BF
S31508003AE013468DF8043001238DF80F30BDF80630E3
S31508003AF040F6FF72934208D100224FF48F71304886
S31508003B00FFF7EEFE0346002B52D19DF805301B0940
S31508003B10DBB2002B19D0BDF806305B099BB2012B2E
S31508003B2005D0BDF806305B099BB2022B0DD1BDF856
S31508003B300630212B09D0BDF80630452B05D00022CA
S31508003B4040F229111E48FFF7CBFE9DF8053003F019
S31508003B500F029DF805301B09DBB29B001344194A76
S31508003B6052F823300293BDF806305B101BB203F4FB
S31508003B70FE631AB2BDF9063003F01F031BB21343E6
S31508003B801BB29BB202991846FFF73AFE9DF805301C
S31508003B901B09DBB2002B07D09DF80420BDF80630C0
S31508003BA011461846FFF7ACFE00238DF80F3000E0EB
S31508003BB000BF9DF80F30184605B05DF804FB00BF3E
S31508003BC010A2010890A601080000000000000000ED
S31508003BD000B585B00346ADF806300B468DF80530BE
S31508003BE013468DF8043001238DF80F30BDF80630E2
S31508003BF040F6FF72934208D1002240F24D112C483C
S31508003C00FFF76EFE0346002B4AD19DF805301B09C7
S31508003C10DBB2002B19D0BDF806305B099BB2012B2D
S31508003C2005D0BDF806305B099BB2022B0DD1BDF855
S31508003C300630212B09D0BDF80630452B05D00022C9
S31508003C404FF4AC711A48FFF74BFE9DF8053003F0A8
S31508003C500F029DF805301B09DBB29B001344154A79
S31508003C6052F8233002939DF80430DB01029A13437D
S31508003C700293BDF806305B101BB203F4FE631AB25A
S31508003C80BDF9063003F01F031BB213431BB29BB2E8
S31508003C9002991846FFF7B4FD00238DF80F3000E0AF
S31508003CA000BF9DF80F30184605B05DF804FB00BF4D
S31508003CB010A2010890A601080000000000000000FC
S31508003CC084B00190019B03F0070303930A4BDB685A
S31508003CD00293029A4FF6FF0313400293039B1A02BC
S31508003CE0029B1A43054B13430293034A029BD36074
S31508003CF000BF04B0704700BF00ED00E00000FA0501
S31508003D0082B00346ADF80630BDF90630002B0CDB51
S31508003D10BDF8063003F01F020549BDF906305B09F8
S31508003D20012000FA02F241F8232000BF02B07047D2
S31508003D3000E100E0000000000000000000000000B4
S31508003D4082B00346ADF80630BDF90630002B13DB0A
S31508003D50BDF8063003F01F020949BDF906305B09B4
S31508003D60012000FA02F2203341F82320BFF34F8FD7
S31508003D7000BFBFF36F8F00BF00BF02B0704700BF20
S31508003D8000E100E000000000000000000000000064
S31508003D9072B600BF704700BF0000000000000000B8
S31508003DA082B00190019B002B0AD0094B1B68002B9F
S31508003DB003D0074B1B68013B00E00023044A13604D
S31508003DC0034B1B68002B00D162B600BF02B07047D8
S31508003DD0E40E0124000000000000000000000000BE
S31508003DE0064B1B68002B00D172B6044B1B680133C7
S31508003DF0024A1360014B1B6818467047E40E0124FB
S31508003E0000B583B003468DF807309DF807301BB21E
S31508003E101846FFF775FF00BF03B05DF804FB00BF47
S31508003E2000B583B003468DF807309DF807301BB2FE
S31508003E301846FFF785FF00BF03B05DF804FB00BF17
S31508003E4008B50320FFF73CFF00BF08BD00000000CF
S31508003E5008B50D4B5B68002B0DD00C4B1B690B4A44
S31508003E6023F0010313610A4B1B68094A526811467D
S31508003E700020984702E007480CF0E2F9BFF34F8F9D
S31508003E8000BF00BF08BD00BF08010024002C004287
S31508003E9058010024345A01240000000000000000E4
S31508003EA008B50D4BDB68002B0DD00C4B1B690B4A74
S31508003EB023F0010313610A4B9B68094AD26811462D
S31508003EC00020984702E007480CF0BAF9BFF34F8F75
S31508003ED000BF00BF08BD00BF080100240030004233
S31508003EE058010024905F0124000000000000000033
S31508003EF008B50D4B5B69002B0DD00C4B1B690B4AA3
S31508003F0023F0010313610A4B1B69094A52691146DA
S31508003F100020984702E007480CF092F9BFF34F8F4C
S31508003F2000BF00BF08BD00BF08010024003C0040D8
S31508003F3058010024F85A012400000000000000007F
S31508003F4008B50D4BDB69002B0DD00C4B1B690B4AD2
S31508003F5023F0010313610A4B9B69094AD26911468A
S31508003F600020984702E007480CF06AF9BFF34F8F24
S31508003F7000BF00BF08BD00BF080100240040004282
S31508003F8058010024445D01240000000000000000E0
S31508003F9008B50E4B5B6A002B0FD04FF040231B6908
S31508003FA04FF0402223F001031361094B1B6A084AAC
S31508003FB0526A11460020984702E006480CF040F97C
S31508003FC0BFF34F8F00BF00BF08BD00BF0801002424
S31508003FD058010024BC5B012400000000000000001A
S31508003FE008B50D4BDB6A002B0DD00C4B1B690B4A31
S31508003FF023F0010313610A4B9B6A094AD26A1146E8
S315080040000020984702E007480CF01AF9BFF34F8FD3
S3150800401000BF00BF08BD00BF08010024003C0042E5
S3150800402058010024805C0124000000000000000004
S3150800403008B50D4B5B6B002B0DD00C4B1B690B4A5F
S3150800404023F0010313610A4B1B6B094A526B114695
S315080040500020984702E007480CF0F2F8BFF34F8FAC
S3150800406000BF00BF08BD00BF08010024004400428D
S3150800407058010024546001240000000000000000DC
S3150800408008B50D4BDB6B002B0DD00C4B1B690B4A8F
S3150800409023F0010313610A4B9B6B094AD26B114645
S315080040A00020984702E007480CF0CAF8BFF34F8F84
S315080040B000BF00BF08BD00BF080100240048004239
S315080040C058010024186101240000000000000000C7
S315080040D008B50D4B5B6C002B0DD00C4B1B690B4ABE
S315080040E023F0010313610A4B1B6C094A526C1146F3
S315080040F00020984702E007480CF0A2F8BFF34F8F5C
S3150800410000BF00BF08BD00BF0801002400440040EE
S3150800411058010024085E0124000000000000000089
S3150800412008B50D4BDB6C002B0DD00C4B1B690B4AED
S3150800413023F0010313610A4B9B6C094AD26C1146A2
S315080041400020984702E007480CF07AF8BFF34F8F33
S3150800415000BF00BF08BD00BF08010024004800409A
S3150800416058010024CC5E0124000000000000000075
S3150800417082B00190009100BF02B0704700000000B5
S3150800418000B587B00346029101928DF80F300023DF
S315080041908DF81730029B002B0CD1002240F26711D4
S315080041A0144803F035F80346002B03D023238DF873
S315080041B0173019E09DF80F30184600F059F89DF8A9
S315080041C00F300D49029A41F833209DF80F300A4AFC
S315080041D0DB001344019A5A609DF80F30184600F028
S315080041E00FF800238DF817309DF81730184607B0DA
S315080041F05DF804FB40A201085801002400000000F5
S3150800420000B585B003468DF8073000238DF80F30CA
S315080042109DF80730124ADB0013445B68002B0CD16B
S3150800422000224FF4CB710F4802F0F2FF0346002B31
S3150800423003D021238DF80F300CE09DF8073018467F
S3150800424003F05EF99DF80730184603F061F800237D
S315080042508DF80F309DF80F30184605B05DF804FB51
S315080042600801002440A20108000000000000000028
S3150800427000B585B003468DF8073000238DF80F305A
S315080042809DF80730104ADB0013445B68002B0CD1FD
S31508004290002240F2B5110D4802F0BAFF0346002B82
S315080042A003D021238DF80F3007E09DF80730184614
S315080042B003F076F800238DF80F309DF80F30184676
S315080042C005B05DF804FB00BF0801002440A2010800
S315080042D000B587B002910192009303468DF80F301E
S315080042E000238DF817309DF80F300221184602F08A
S315080042F09FFF0346002B0CD0002240F2F5114F48D1
S3150800430002F086FF0346002B03D024238DF81730CE
S315080043108EE09DF80F304A4ADB0013445B68002B99
S315080043200CD000224FF4FF71444802F071FF034697
S31508004330002B03D020238DF8173079E0029B002B41
S315080043400CD1002240F205213C4802F061FF0346E9
S31508004350002B03D022238DF8173069E09DF80F3023
S31508004360184602F0BDFF029BDB0BADF81430BDF812
S31508004370143001331A46029BB3FBF2F3ADF8123040
S315080043809DF80F302E4A52F833301B68BDF81420BA
S315080043909A629DF80F302A4A52F833301B68BDF8E6
S315080043A01220DA629DF80F30254ADB001344029A80
S315080043B05A60BDF81430591C9DF80F30204A52F83F
S315080043C033300A469A609DF80F301D4A52F833304A
S315080043D04FF6FF72DA609DF80F30194A52F833200B
S315080043E0137C43F0300313749DF80F30144A52F8C7
S315080043F033301B680122DA609DF80F30104A52F8F4
S3150800440033301B6800225A629DF80F300D4AD35C80
S315080044101846FFF7F5FC9DF80F30009A01991846E3
S31508004420FFF7AEFE03468DF8173000238DF81730D8
S315080044309DF81730184607B05DF804FB40A201083E
S3150800444008010024E0A601080000000000000000A2
S3150800445000B585B002910192009303468DF80F309E
S315080044609DF80F300A4A52F833305B68094AA2FBB6
S3150800447003239B09029A02FB03F19DF80F00009B98
S31508004480019AFFF725FF0346184605B05DF804FBB9
S3150800449008010024D34D621000000000000000004F
S315080044A000B585B00190009101238DF80F30019B6E
S315080044B01B0CDBB203F00F038DF80B30019B1B0DB1
S315080044C0DBB203F00F038DF80A309DF80B209DF838
S315080044D00A1059481346DB009B1A5B000B445B0025
S315080044E003449B8840F6FF7293420BD10022532166
S315080044F0524802F08DFE0346002B03D023238DF885
S315080045000F3092E0009B42F2107293420BD90022C0
S315080045105B214A4802F07CFE0346002B03D0292380
S315080045208DF80F3081E09DF80B2043491346DB00D8
S315080045309B1A9B000B441B68DB68ADF80830BDF876
S31508004540083007EE903AB8EEE77A009B07EE903A05
S31508004550F8EE676A9FED3A6AC6EE867A67EE277ABC
S31508004560FCEEE77A17EE903AADF80C30BDF80C2061
S31508004570BDF808309A4204D1BDF80C300133ADF8C5
S315080045800C30019B1B0D03F00F03072B4AD801A221
S3150800459052F823F0B5450008D1450008ED45000856
S315080045A009460008B5450008D1450008ED4500084C
S315080045B0094600089DF80B201F491346DB009B1A85
S315080045C09B000B441B681B68BDF80C205A6329E046
S315080045D09DF80B2018491346DB009B1A9B000B44D9
S315080045E01B681B68BDF80C209A631BE09DF80B201E
S315080045F011491346DB009B1A9B000B441B681B687A
S31508004600BDF80C20DA630DE09DF80B200A49134625
S31508004610DB009B1A9B000B441B681B68BDF80C202B
S315080046201A6400BF00238DF80F309DF80F30184626
S3150800463005B05DF804FB00BFA801002470A20108BC
S3150800464000401C46000000000000000000000000BA
S3150800465010B586B00190009101238DF81730019BA3
S315080046601B0CDBB203F00F038DF80F30019B1B0DFB
S31508004670DBB203F00F038DF80E309DF80F20A84922
S315080046801346DB009B1A9B000B4414331B68002B54
S315080046900CD1002240F2E711A24802F0B9FD034608
S315080046A0002B03D021238DF8173034E19DF80F2015
S315080046B09B491346DB009B1A9B000B4418331B7857
S315080046C01A469DF80E3042FA03F303F00103002B55
S315080046D00BD0002240F2EF11924802F099FD0346F2
S315080046E0002B02D022238DF81730009B42F210725D
S315080046F093420CD900224FF4FB718A4802F088FDD8
S315080047000346002B03D029238DF8173003E1002335
S3150800471004939DF80E3003F00203DBB2002B0CD095
S315080047209DF80F207E491346DB009B1A9B000B441D
S315080047301B681B68DB6904930BE09DF80F2078491A
S315080047401346DB009B1A9B000B441B681B689B697E
S3150800475004939DF80E3003F00103DB00032202FAEE
S3150800476003F3DB43049A134004939DF80E3003F0D9
S315080047700103DB00602202FA03F3049A134304934D
S315080047809DF80E3003F00103DB00082202FA03F35A
S31508004790049A134304939DF80E3003F00103DB00DB
S315080047A0802202FA03F3049A134304939DF80E3009
S315080047B003F00203DBB2002B0CD09DF80F205849FA
S315080047C01346DB009B1A9B000B441B681B68049A64
S315080047D0DA610BE09DF80F2051491346DB009B1A5E
S315080047E09B000B441B681B68049A9A619DF80F206E
S315080047F04B491346DB009B1A9B000B441B681B683E
S315080048001B6A04939DF80E3003F003035B009DF8C2
S315080048100E209208D2B213445B00012202FA03F377
S31508004820049A134304939DF80F203D491346DB0071
S315080048309B1A9B000B441B681B68049A1A629DF816
S315080048400F30012B02DC002B03DA1BE0063B012BA1
S3150800485018D89DF80F2032491346DB009B1A9B0097
S315080048600B441B681B68596C9DF80F202C4813468F
S31508004870DB009B1A9B0003441B681B6841F400423B
S315080048805A6400E000BF9DF80F2025491346DB0057
S315080048909B1A9B000B4418331B785AB29DF80E30AE
S315080048A0012101FA03F35BB213435BB29DF80F20B3
S315080048B0D8B21B491346DB009B1A9B000B441833DE
S315080048C002461A70019B9BB29DF80F209DF80E10A8
S315080048D0C3F30B039CB212481346DB009B1A5B001A
S315080048E00B445B00034422469A8000990198FFF71F
S315080048F0D7FD019B9BB2C3F30B0398B2019B1B0B1D
S31508004900DBB203F00F03DBB21A461221FFF760F998
S3150800491000238DF817309DF81730184606B010BDDD
S31508004920A801002470A20108000000000000000091
S3150800493000B587B0034600928DF807300B468DF810
S31508004940063001238DF817309DF8073003211846E5
S3150800495002F06EFC0346002B0CD0002240F23321F5
S315080049609E4802F055FC0346002B03D02A238DF8F7
S3150800497017302CE19DF8072099491346DB009B1A4E
S315080049809B000B4414331B68002B0CD000224FF4F9
S315080049900F71924802F03CFC0346002B03D02023FB
S315080049A08DF8173013E1009B002B0CD1002240F242
S315080049B043218A4802F02CFC0346002B03D0292306
S315080049C08DF8173003E19DF80630002B02D0009BC6
S315080049D05B0000E0009B04939DF80720804913467E
S315080049E0DB009B1A9B000B441B685A68049BB2FBAE
S315080049F0F3F3DB0BADF80E309DF807207849134624
S31508004A00DB009B1A9B000B441B685A68049BB2FB8D
S31508004A10F3F3BDF80E200132B3FBF2F3ADF80C3018
S31508004A209DF80730184602F05BFC9DF807206C4994
S31508004A301346DB009B1A9B000B4403F118025378BC
S31508004A4043F0010353709DF807209DF8073003F0E3
S31508004A503F03D9B262481346DB009B1A9B00034406
S31508004A6003F11802537861F3870353709DF8072002
S31508004A709DF8063003F00103D9B259481346DB0006
S31508004A809B1A9B00034403F11802537861F3410310
S31508004A9053709DF8072052491346DB009B1A9B006A
S31508004AA00B441B685B68BDF80E200132B3FBF2F1BC
S31508004AB0BDF80C309DF80720B1FBF3F148481346C2
S31508004AC0DB009B1A9B00034414331960BDF80E30B3
S31508004AD0581C9DF8072042491346DB009B1A9B0089
S31508004AE00B441B6802469A60BDF80C30581E9DF8A8
S31508004AF007203B491346DB009B1A9B000B441B68A7
S31508004B000246DA609DF8072035491346DB009B1AF2
S31508004B109B000B441A68137C43F03003137400237C
S31508004B2002939DF807202E491346DB009B1A9B002B
S31508004B300B441B681B681B680293029B23F06003E7
S31508004B4002939DF80630002B01D0602300E0002375
S31508004B50029A134302939DF8072021491346DB0066
S31508004B609B1A9B000B441B681B68029A1A609DF8E7
S31508004B7007201B491346DB009B1A9B000B441B6846
S31508004B801B68BDF80E209A62BDF80C30581E9DF8B9
S31508004B90072013491346DB009B1A9B000B441B682E
S31508004BA01B680246DA629DF807200D491346DB00AA
S31508004BB09B1A9B000B441B681B6800225A629DF8CF
S31508004BC00730184602F0A4FB00238DF817309DF82D
S31508004BD01730184607B05DF804FB00BF70A201083D
S31508004BE0A8010024000000000000000000000000EA
S31508004BF082B00346ADF80630BDF8063003F00F0361
S31508004C001A4A52F823301A68BDF806301B099BB2B7
S31508004C1003F01F03012101FA03F31846BDF8063015
S31508004C2003F00F03114951F8233002431A60BDF807
S31508004C30063003F00F030D4A52F823301A68BDF800
S31508004C4006301B099BB203F01F03012101FA03F387
S31508004C50DB431846BDF8063003F00F03034951F845
S31508004C60233002401A6000BF02B07047F0A6010860
S31508004C7082B00346ADF80630BDF8063003F00F03E0
S31508004C800D4A52F823301A68BDF806301B099BB244
S31508004C9003F01F03012101FA03F3DB431846BDF8AD
S31508004CA0063003F00F03044951F8233002401A6016
S31508004CB000BF02B0704700BF10A70108000000003F
S31508004CC082B00346ADF80630BDF8063003F00F0390
S31508004CD00C4A52F823301A68BDF806301B099BB2F5
S31508004CE003F01F03012101FA03F31846BDF8063045
S31508004CF003F00F03034951F8233002431A6000BF3B
S31508004D0002B0704710A7010800000000000000006C
S31508004D1000B587B0059004910392049B0093059B08
S31508004D20039A00210220FCF70BFBFEE700000000B7
S31508004D3010B586B003468DF807309DF80720AC49B4
S31508004D4013465B0013449B000B4408331B68002B77
S31508004D5000F04A819DF80720A54913465B001344D5
S31508004D609B000B441B8840F6FF72934230D09DF897
S31508004D7007209F4913465B0013449B000B441B887E
S31508004D805B099BB21A469B4B53F8223098699DF8EB
S31508004D900720974913465B0013449B000B441B8866
S31508004DA003F01F03012202FA03F19DF80720904C35
S31508004DB013465B0013449B0023441B885B099BB284
S31508004DC01A468C4B53F8223040EA01029A6104E0F5
S31508004DD0002291218848FEF783FD9DF80720844923
S31508004DE013465B0013449B000B4402331B8840F6B2
S31508004DF0FF72934233D09DF807207D4913465B0026
S31508004E0013449B000B4402331B885B099BB21A466A
S31508004E10784B53F8223098699DF807207449134651
S31508004E205B0013449B000B4402331B8803F01F03EB
S31508004E30012202FA03F19DF807206D4C13465B0028
S31508004E4013449B00234402331B885B099BB21A4612
S31508004E50684B53F8223040EA01029A6104E00022C6
S31508004E6092216548FEF73CFD9DF8072060491346E8
S31508004E705B0013449B000B4404331B68059300BF77
S31508004E80059B5A1E0592002BFAD19DF80720584912
S31508004E9013465B0013449B000B4402331B8840F601
S31508004EA0FF72934234D09DF80720514913465B00A0
S31508004EB013449B000B4402331B885B099BB21A46BA
S31508004EC04C4B53F8223098699DF8072048491346F9
S31508004ED05B0013449B000B4402331B8803F01F033B
S31508004EE04FF4803202FA03F19DF80720404C13462E
S31508004EF05B0013449B00234402331B885B099BB267
S31508004F001A463C4B53F8223040EA01029A6104E003
S31508004F10002295213848FEF7E3FC9DF8072034491E
S31508004F2013465B0013449B000B4404331B6804932D
S31508004F3000BF049B5A1E0492002BFAD19DF8072045
S31508004F402B4913465B0013449B000B441B8840F611
S31508004F50FF72934231D09DF80720254913465B001E
S31508004F6013449B000B441B885B099BB21A46214BD2
S31508004F7053F8223098699DF807201D4913465B00AF
S31508004F8013449B000B441B8803F01F034FF4803225
S31508004F9002FA03F19DF80720154C13465B001344EB
S31508004FA09B0023441B885B099BB21A46114B53F896
S31508004FB0223040EA01029A6104E0002297210E4855
S31508004FC0FEF78EFC9DF80720094913465B0013443B
S31508004FD09B000B4404331B68039300BF039B5A1EB4
S31508004FE00392002BFAD100E000BF00BF06B010BD47
S31508004FF088020024B0A60108A0A20108000000004B
S3150800500010B586B003468DF807309DF80720AC49E1
S3150800501013465B0013449B000B4408331B68002BA4
S3150800502000F04A819DF80720A54913465B00134402
S315080050309B000B4402331B8840F6FF72934234D020
S315080050409DF807209E4913465B0013449B000B44BA
S3150800505002331B885B099BB21A469A4B53F82230D7
S3150800506098699DF80720964913465B0013449B00F0
S315080050700B4402331B8803F01F034FF4803202FAF5
S3150800508003F19DF807208E4C13465B0013449B00E2
S31508005090234402331B885B099BB21A46894B53F893
S315080050A0223040EA01029A6104E00022AB218648D8
S315080050B0FEF716FC9DF80720814913465B0013444A
S315080050C09B000B441B8840F6FF72934231D09DF833
S315080050D007207B4913465B0013449B000B441B883F
S315080050E05B099BB21A46774B53F8223098699DF8AC
S315080050F00720734913465B0013449B000B441B8827
S3150800510003F01F034FF4803202FA03F19DF80720DB
S315080051106B4C13465B0013449B0023441B885B09B6
S315080051209BB21A46674B53F8223040EA01029A614D
S3150800513004E00022AC216448FEF7D2FB9DF8072064
S315080051405F4913465B0013449B000B4404331B68FA
S31508005150059300BF059B5A1E0592002BFAD19DF8B0
S315080051600720574913465B0013449B000B441B88D2
S3150800517040F6FF72934230D09DF8072050491346F7
S315080051805B0013449B000B441B885B099BB21A46C1
S315080051904C4B53F8223098699DF807204849134626
S315080051A05B0013449B000B441B8803F01F0301227A
S315080051B002FA03F19DF80720414C13465B0013449D
S315080051C09B0023441B885B099BB21A463D4B53F848
S315080051D0223040EA01029A6104E00022AF213A48EF
S315080051E0FEF77EFB9DF80720354913465B001344FE
S315080051F09B000B4404331B68049300BF049B5A1E90
S315080052000492002BFAD19DF807202D4913465B001E
S3150800521013449B000B4402331B8840F6FF729342EB
S3150800522033D09DF80720264913465B0013449B009C
S315080052300B4402331B885B099BB21A46214B53F871
S31508005240223098699DF807201D4913465B001344D0
S315080052509B000B4402331B8803F01F03012202FA4A
S3150800526003F19DF80720164C13465B0013449B0078
S31508005270234402331B885B099BB21A46114B53F829
S31508005280223040EA01029A6104E00022B1210E4868
S31508005290FEF726FB9DF80720094913465B001344D1
S315080052A09B000B4404331B68039300BF039B5A1EE1
S315080052B00392002BFAD100E000BF00BF06B010BD74
S315080052C088020024B0A60108A0A201080000000078
S315080052D010B586B003460A468DF8073013468DF892
S315080052E006309DF80630002B47D09DF80720AA49BE
S315080052F013465B0013449B000B4402331B8840F69D
S31508005300FF72934233D09DF80720A34913465B00EA
S3150800531013449B000B4402331B885B099BB21A4655
S315080053209E4B53F8223098699DF807209A491346F0
S315080053305B0013449B000B4402331B8803F01F03D6
S31508005340012202FA03F19DF80720934C13465B00ED
S3150800535013449B00234402331B885B099BB21A46FD
S315080053608E4B53F8223040EA01029A614DE0002242
S31508005370C4218B48FEF7B4FA47E09DF80720864912
S3150800538013465B0013449B000B4402331B8840F60C
S31508005390FF72934234D09DF807207F4913465B007D
S315080053A013449B000B4402331B885B099BB21A46C5
S315080053B07A4B53F8223098699DF8072076491346A8
S315080053C05B0013449B000B4402331B8803F01F0346
S315080053D04FF4803202FA03F19DF807206E4C13460B
S315080053E05B0013449B00234402331B885B099BB272
S315080053F01A466A4B53F8223040EA01029A6104E0E1
S315080054000022C8216648FEF76BFA9DF80720624914
S3150800541013465B0013449B000B4404331B68059337
S3150800542000BF059B5A1E0592002BFAD19DF807204E
S31508005430594913465B0013449B000B4404331B680D
S31508005440049300BF049B5A1E0492002BFAD19DF8C0
S315080054500720514913465B0013449B000B441B88E5
S3150800546040F6FF72934230D09DF807204A4913460A
S315080054705B0013449B000B441B885B099BB21A46CE
S31508005480464B53F8223098699DF80720424913463F
S315080054905B0013449B000B441B8803F01F03012287
S315080054A002FA03F19DF807203B4C13465B001344B0
S315080054B09B0023441B885B099BB21A46374B53F85B
S315080054C0223040EA01029A6104E00022CC213448E5
S315080054D0FEF706FA9DF807202F4913465B0013448A
S315080054E09B000B4404331B68039300BF039B5A1E9F
S315080054F00392002BFAD19DF80720274913465B0033
S3150800550013449B000B4404331B68029300BF029BA1
S315080055105A1E0292002BFAD19DF807201E491346FF
S315080055205B0013449B000B441B8840F6FF729342B2
